{
  "address": "0xA74c0C03A05B94a67FDc09351b312f122308335d",
  "abi": [
    {
      "inputs": [],
      "name": "Address_Zero",
      "type": "error"
    },
    {
      "inputs": [],
      "name": "CallerNotPartOfExpense",
      "type": "error"
    },
    {
      "inputs": [],
      "name": "Expense_Out_of_Bounds",
      "type": "error"
    },
    {
      "inputs": [],
      "name": "Expense_Settled",
      "type": "error"
    },
    {
      "inputs": [],
      "name": "Insufficient_Balance",
      "type": "error"
    },
    {
      "inputs": [],
      "name": "Transfer_Failed",
      "type": "error"
    },
    {
      "inputs": [],
      "name": "ZeroAmountDeposit",
      "type": "error"
    },
    {
      "anonymous": false,
      "inputs": [
        {
          "indexed": false,
          "internalType": "address",
          "name": "",
          "type": "address"
        },
        {
          "indexed": false,
          "internalType": "address",
          "name": "",
          "type": "address"
        },
        {
          "indexed": false,
          "internalType": "uint256",
          "name": "",
          "type": "uint256"
        },
        {
          "indexed": false,
          "internalType": "uint256",
          "name": "",
          "type": "uint256"
        }
      ],
      "name": "ExpenseSettled",
      "type": "event"
    },
    {
      "anonymous": false,
      "inputs": [
        {
          "indexed": false,
          "internalType": "address",
          "name": "",
          "type": "address"
        },
        {
          "indexed": false,
          "internalType": "address",
          "name": "",
          "type": "address"
        },
        {
          "indexed": false,
          "internalType": "address[]",
          "name": "",
          "type": "address[]"
        },
        {
          "indexed": false,
          "internalType": "uint256[]",
          "name": "",
          "type": "uint256[]"
        },
        {
          "indexed": false,
          "internalType": "uint256",
          "name": "",
          "type": "uint256"
        }
      ],
      "name": "PaymentExpenseCreated",
      "type": "event"
    },
    {
      "stateMutability": "nonpayable",
      "type": "fallback"
    },
    {
      "inputs": [],
      "name": "deposit",
      "outputs": [],
      "stateMutability": "payable",
      "type": "function"
    },
    {
      "inputs": [
        {
          "internalType": "uint256",
          "name": "_index",
          "type": "uint256"
        }
      ],
      "name": "getExpense",
      "outputs": [
        {
          "internalType": "address",
          "name": "",
          "type": "address"
        },
        {
          "internalType": "address",
          "name": "",
          "type": "address"
        },
        {
          "internalType": "address[]",
          "name": "",
          "type": "address[]"
        },
        {
          "internalType": "uint256[]",
          "name": "",
          "type": "uint256[]"
        },
        {
          "internalType": "string",
          "name": "",
          "type": "string"
        }
      ],
      "stateMutability": "view",
      "type": "function"
    },
    {
      "inputs": [
        {
          "internalType": "address",
          "name": "_user",
          "type": "address"
        }
      ],
      "name": "getbalance",
      "outputs": [
        {
          "internalType": "uint256",
          "name": "",
          "type": "uint256"
        }
      ],
      "stateMutability": "view",
      "type": "function"
    },
    {
      "inputs": [
        {
          "internalType": "uint256",
          "name": "_amount",
          "type": "uint256"
        },
        {
          "internalType": "address",
          "name": "_to",
          "type": "address"
        },
        {
          "internalType": "string",
          "name": "_description",
          "type": "string"
        },
        {
          "internalType": "address[]",
          "name": "_splitBy",
          "type": "address[]"
        },
        {
          "internalType": "uint256[]",
          "name": "_splitAmount",
          "type": "uint256[]"
        }
      ],
      "name": "payAndCreateExpense",
      "outputs": [],
      "stateMutability": "nonpayable",
      "type": "function"
    },
    {
      "inputs": [
        {
          "internalType": "address",
          "name": "_recipient",
          "type": "address"
        },
        {
          "internalType": "uint256",
          "name": "_expenseIndex",
          "type": "uint256"
        }
      ],
      "name": "settleExpense",
      "outputs": [],
      "stateMutability": "nonpayable",
      "type": "function"
    },
    {
      "inputs": [
        {
          "internalType": "address",
          "name": "to",
          "type": "address"
        },
        {
          "internalType": "uint256",
          "name": "amount",
          "type": "uint256"
        }
      ],
      "name": "withdraw",
      "outputs": [],
      "stateMutability": "nonpayable",
      "type": "function"
    }
  ],
  "transactionHash": "0xb33c2c728f6eca39e5af5d0b5c7ed48ae1464319147c8c5a339461a9b886cfd8",
  "args": [],
  "numDeployments": 1,
  "solcInputHash": "2a29e72c70060da4eeee41dced321893",
  "bytecode": "0x608060405234801561001057600080fd5b50611f1c806100206000396000f3fe6080604052600436106100595760003560e01c80633aeb8cc514610071578063681161771461009a578063735e5db6146100d7578063871ed89114610118578063d0e30db014610141578063f3fef3a31461014b5761005a565b5b34801561006657600080fd5b5061006f610174565b005b34801561007d57600080fd5b5061009860048036038101906100939190611338565b610205565b005b3480156100a657600080fd5b506100c160048036038101906100bc9190611378565b6108f1565b6040516100ce91906113b4565b60405180910390f35b3480156100e357600080fd5b506100fe60048036038101906100f991906113cf565b610939565b60405161010f959493929190611617565b60405180910390f35b34801561012457600080fd5b5061013f600480360381019061013a919061193f565b610c01565b005b610149610174565b005b34801561015757600080fd5b50610172600480360381019061016d9190611338565b610fcd565b005b600034036101ae576040517f3a093b8200000000000000000000000000000000000000000000000000000000815260040160405180910390fd5b346000803373ffffffffffffffffffffffffffffffffffffffff1673ffffffffffffffffffffffffffffffffffffffff16815260200190815260200160002060008282546101fc9190611a3d565b92505081905550565b6001805490508110610243576040517f7f61c1fb00000000000000000000000000000000000000000000000000000000815260040160405180910390fd5b60006001828154811061025957610258611a71565b5b90600052602060002090600502016040518060a001604052908160008201805461028290611acf565b80601f01602080910402602001604051908101604052809291908181526020018280546102ae90611acf565b80156102fb5780601f106102d0576101008083540402835291602001916102fb565b820191906000526020600020905b8154815290600101906020018083116102de57829003601f168201915b505050505081526020016001820160009054906101000a900473ffffffffffffffffffffffffffffffffffffffff1673ffffffffffffffffffffffffffffffffffffffff1673ffffffffffffffffffffffffffffffffffffffff1681526020016002820160009054906101000a900473ffffffffffffffffffffffffffffffffffffffff1673ffffffffffffffffffffffffffffffffffffffff1673ffffffffffffffffffffffffffffffffffffffff1681526020016003820180548060200260200160405190810160405280929190818152602001828054801561043557602002820191906000526020600020905b8160009054906101000a900473ffffffffffffffffffffffffffffffffffffffff1673ffffffffffffffffffffffffffffffffffffffff16815260200190600101908083116103eb575b505050505081526020016004820180548060200260200160405190810160405280929190818152602001828054801561048d57602002820191906000526020600020905b815481526020019060010190808311610479575b505050505081525050905060007fffffffffffffffffffffffffffffffffffffffffffffffffffffffffffffffff905060005b826060015151811015610539573373ffffffffffffffffffffffffffffffffffffffff16836060015182815181106104fb576104fa611a71565b5b602002602001015173ffffffffffffffffffffffffffffffffffffffff160361052657809150610539565b808061053190611b00565b9150506104c0565b507fffffffffffffffffffffffffffffffffffffffffffffffffffffffffffffffff8103610593576040517f73da398e00000000000000000000000000000000000000000000000000000000815260040160405180910390fd5b816080015181815181106105aa576105a9611a71565b5b60200260200101516000803373ffffffffffffffffffffffffffffffffffffffff1673ffffffffffffffffffffffffffffffffffffffff168152602001908152602001600020541015610629576040517fefc60c1400000000000000000000000000000000000000000000000000000000815260040160405180910390fd5b60008260800151828151811061064257610641611a71565b5b602002602001015103610681576040517f2eb31db200000000000000000000000000000000000000000000000000000000815260040160405180910390fd5b8160800151818151811061069857610697611a71565b5b60200260200101516000803373ffffffffffffffffffffffffffffffffffffffff1673ffffffffffffffffffffffffffffffffffffffff16815260200190815260200160002060008282546106ed9190611b48565b925050819055508160800151818151811061070b5761070a611a71565b5b60200260200101516000808673ffffffffffffffffffffffffffffffffffffffff1673ffffffffffffffffffffffffffffffffffffffff16815260200190815260200160002060008282546107609190611a3d565b925050819055506000826080015182815181106107805761077f611a71565b5b60200260200101818152505081600184815481106107a1576107a0611a71565b5b906000526020600020906005020160008201518160000190816107c49190611d28565b5060208201518160010160006101000a81548173ffffffffffffffffffffffffffffffffffffffff021916908373ffffffffffffffffffffffffffffffffffffffff16021790555060408201518160020160006101000a81548173ffffffffffffffffffffffffffffffffffffffff021916908373ffffffffffffffffffffffffffffffffffffffff160217905550606082015181600301908051906020019061086f929190611141565b50608082015181600401908051906020019061088c9291906111cb565b509050507f702529b1db287fea0b6a48fa57a2a91053f90cb3dea5c93fa16738f52e0fd372338585856080015185815181106108cb576108ca611a71565b5b60200260200101516040516108e39493929190611dfa565b60405180910390a150505050565b60008060008373ffffffffffffffffffffffffffffffffffffffff1673ffffffffffffffffffffffffffffffffffffffff168152602001908152602001600020549050919050565b6000806060806060600180549050861061097f576040517f7f61c1fb00000000000000000000000000000000000000000000000000000000815260040160405180910390fd5b60006001878154811061099557610994611a71565b5b90600052602060002090600502016040518060a00160405290816000820180546109be90611acf565b80601f01602080910402602001604051908101604052809291908181526020018280546109ea90611acf565b8015610a375780601f10610a0c57610100808354040283529160200191610a37565b820191906000526020600020905b815481529060010190602001808311610a1a57829003601f168201915b505050505081526020016001820160009054906101000a900473ffffffffffffffffffffffffffffffffffffffff1673ffffffffffffffffffffffffffffffffffffffff1673ffffffffffffffffffffffffffffffffffffffff1681526020016002820160009054906101000a900473ffffffffffffffffffffffffffffffffffffffff1673ffffffffffffffffffffffffffffffffffffffff1673ffffffffffffffffffffffffffffffffffffffff16815260200160038201805480602002602001604051908101604052809291908181526020018280548015610b7157602002820191906000526020600020905b8160009054906101000a900473ffffffffffffffffffffffffffffffffffffffff1673ffffffffffffffffffffffffffffffffffffffff1681526020019060010190808311610b27575b5050505050815260200160048201805480602002602001604051908101604052809291908181526020018280548015610bc957602002820191906000526020600020905b815481526020019060010190808311610bb5575b505050505081525050905080602001518160400151826060015183608001518460000151955095509550955095505091939590929450565b846000803373ffffffffffffffffffffffffffffffffffffffff1673ffffffffffffffffffffffffffffffffffffffff1681526020019081526020016000205411610c78576040517fefc60c1400000000000000000000000000000000000000000000000000000000815260040160405180910390fd5b600073ffffffffffffffffffffffffffffffffffffffff168473ffffffffffffffffffffffffffffffffffffffff1603610cde576040517fcb175ac900000000000000000000000000000000000000000000000000000000815260040160405180910390fd5b610ce6611218565b83816000018190525033816020019073ffffffffffffffffffffffffffffffffffffffff16908173ffffffffffffffffffffffffffffffffffffffff168152505082816060018190525081816080018190525084816040019073ffffffffffffffffffffffffffffffffffffffff16908173ffffffffffffffffffffffffffffffffffffffff168152505060018190806001815401808255809150506001900390600052602060002090600502016000909190919091506000820151816000019081610db29190611d28565b5060208201518160010160006101000a81548173ffffffffffffffffffffffffffffffffffffffff021916908373ffffffffffffffffffffffffffffffffffffffff16021790555060408201518160020160006101000a81548173ffffffffffffffffffffffffffffffffffffffff021916908373ffffffffffffffffffffffffffffffffffffffff1602179055506060820151816003019080519060200190610e5d929190611141565b506080820151816004019080519060200190610e7a9291906111cb565b505050856000803373ffffffffffffffffffffffffffffffffffffffff1673ffffffffffffffffffffffffffffffffffffffff1681526020019081526020016000206000828254610ecb9190611b48565b9250508190555060008573ffffffffffffffffffffffffffffffffffffffff1687604051610ef890611e70565b60006040518083038185875af1925050503d8060008114610f35576040519150601f19603f3d011682016040523d82523d6000602084013e610f3a565b606091505b5050905080610f75576040517f90914fd500000000000000000000000000000000000000000000000000000000815260040160405180910390fd5b7f070ee8994994a7bbc640d886c0415710c196c0af3c53982e4b983a5e1e42b26f3387868660018080549050610fab9190611b48565b604051610fbc959493929190611e85565b60405180910390a150505050505050565b806000803373ffffffffffffffffffffffffffffffffffffffff1673ffffffffffffffffffffffffffffffffffffffff1681526020019081526020016000205411611044576040517fefc60c1400000000000000000000000000000000000000000000000000000000815260040160405180910390fd5b806000803373ffffffffffffffffffffffffffffffffffffffff1673ffffffffffffffffffffffffffffffffffffffff16815260200190815260200160002060008282546110929190611b48565b9250508190555060008273ffffffffffffffffffffffffffffffffffffffff16826040516110bf90611e70565b60006040518083038185875af1925050503d80600081146110fc576040519150601f19603f3d011682016040523d82523d6000602084013e611101565b606091505b505090508061113c576040517f90914fd500000000000000000000000000000000000000000000000000000000815260040160405180910390fd5b505050565b8280548282559060005260206000209081019282156111ba579160200282015b828111156111b95782518260006101000a81548173ffffffffffffffffffffffffffffffffffffffff021916908373ffffffffffffffffffffffffffffffffffffffff16021790555091602001919060010190611161565b5b5090506111c79190611273565b5090565b828054828255906000526020600020908101928215611207579160200282015b828111156112065782518255916020019190600101906111eb565b5b5090506112149190611273565b5090565b6040518060a0016040528060608152602001600073ffffffffffffffffffffffffffffffffffffffff168152602001600073ffffffffffffffffffffffffffffffffffffffff16815260200160608152602001606081525090565b5b8082111561128c576000816000905550600101611274565b5090565b6000604051905090565b600080fd5b600080fd5b600073ffffffffffffffffffffffffffffffffffffffff82169050919050565b60006112cf826112a4565b9050919050565b6112df816112c4565b81146112ea57600080fd5b50565b6000813590506112fc816112d6565b92915050565b6000819050919050565b61131581611302565b811461132057600080fd5b50565b6000813590506113328161130c565b92915050565b6000806040838503121561134f5761134e61129a565b5b600061135d858286016112ed565b925050602061136e85828601611323565b9150509250929050565b60006020828403121561138e5761138d61129a565b5b600061139c848285016112ed565b91505092915050565b6113ae81611302565b82525050565b60006020820190506113c960008301846113a5565b92915050565b6000602082840312156113e5576113e461129a565b5b60006113f384828501611323565b91505092915050565b611405816112c4565b82525050565b600081519050919050565b600082825260208201905092915050565b6000819050602082019050919050565b611440816112c4565b82525050565b60006114528383611437565b60208301905092915050565b6000602082019050919050565b60006114768261140b565b6114808185611416565b935061148b83611427565b8060005b838110156114bc5781516114a38882611446565b97506114ae8361145e565b92505060018101905061148f565b5085935050505092915050565b600081519050919050565b600082825260208201905092915050565b6000819050602082019050919050565b6114fe81611302565b82525050565b600061151083836114f5565b60208301905092915050565b6000602082019050919050565b6000611534826114c9565b61153e81856114d4565b9350611549836114e5565b8060005b8381101561157a5781516115618882611504565b975061156c8361151c565b92505060018101905061154d565b5085935050505092915050565b600081519050919050565b600082825260208201905092915050565b60005b838110156115c15780820151818401526020810190506115a6565b60008484015250505050565b6000601f19601f8301169050919050565b60006115e982611587565b6115f38185611592565b93506116038185602086016115a3565b61160c816115cd565b840191505092915050565b600060a08201905061162c60008301886113fc565b61163960208301876113fc565b818103604083015261164b818661146b565b9050818103606083015261165f8185611529565b9050818103608083015261167381846115de565b90509695505050505050565b600080fd5b600080fd5b7f4e487b7100000000000000000000000000000000000000000000000000000000600052604160045260246000fd5b6116c1826115cd565b810181811067ffffffffffffffff821117156116e0576116df611689565b5b80604052505050565b60006116f3611290565b90506116ff82826116b8565b919050565b600067ffffffffffffffff82111561171f5761171e611689565b5b611728826115cd565b9050602081019050919050565b82818337600083830152505050565b600061175761175284611704565b6116e9565b90508281526020810184848401111561177357611772611684565b5b61177e848285611735565b509392505050565b600082601f83011261179b5761179a61167f565b5b81356117ab848260208601611744565b91505092915050565b600067ffffffffffffffff8211156117cf576117ce611689565b5b602082029050602081019050919050565b600080fd5b60006117f86117f3846117b4565b6116e9565b9050808382526020820190506020840283018581111561181b5761181a6117e0565b5b835b81811015611844578061183088826112ed565b84526020840193505060208101905061181d565b5050509392505050565b600082601f8301126118635761186261167f565b5b81356118738482602086016117e5565b91505092915050565b600067ffffffffffffffff82111561189757611896611689565b5b602082029050602081019050919050565b60006118bb6118b68461187c565b6116e9565b905080838252602082019050602084028301858111156118de576118dd6117e0565b5b835b8181101561190757806118f38882611323565b8452602084019350506020810190506118e0565b5050509392505050565b600082601f8301126119265761192561167f565b5b81356119368482602086016118a8565b91505092915050565b600080600080600060a0868803121561195b5761195a61129a565b5b600061196988828901611323565b955050602061197a888289016112ed565b945050604086013567ffffffffffffffff81111561199b5761199a61129f565b5b6119a788828901611786565b935050606086013567ffffffffffffffff8111156119c8576119c761129f565b5b6119d48882890161184e565b925050608086013567ffffffffffffffff8111156119f5576119f461129f565b5b611a0188828901611911565b9150509295509295909350565b7f4e487b7100000000000000000000000000000000000000000000000000000000600052601160045260246000fd5b6000611a4882611302565b9150611a5383611302565b9250828201905080821115611a6b57611a6a611a0e565b5b92915050565b7f4e487b7100000000000000000000000000000000000000000000000000000000600052603260045260246000fd5b7f4e487b7100000000000000000000000000000000000000000000000000000000600052602260045260246000fd5b60006002820490506001821680611ae757607f821691505b602082108103611afa57611af9611aa0565b5b50919050565b6000611b0b82611302565b91507fffffffffffffffffffffffffffffffffffffffffffffffffffffffffffffffff8203611b3d57611b3c611a0e565b5b600182019050919050565b6000611b5382611302565b9150611b5e83611302565b9250828203905081811115611b7657611b75611a0e565b5b92915050565b60008190508160005260206000209050919050565b60006020601f8301049050919050565b600082821b905092915050565b600060088302611bde7fffffffffffffffffffffffffffffffffffffffffffffffffffffffffffffffff82611ba1565b611be88683611ba1565b95508019841693508086168417925050509392505050565b6000819050919050565b6000611c25611c20611c1b84611302565b611c00565b611302565b9050919050565b6000819050919050565b611c3f83611c0a565b611c53611c4b82611c2c565b848454611bae565b825550505050565b600090565b611c68611c5b565b611c73818484611c36565b505050565b5b81811015611c9757611c8c600082611c60565b600181019050611c79565b5050565b601f821115611cdc57611cad81611b7c565b611cb684611b91565b81016020851015611cc5578190505b611cd9611cd185611b91565b830182611c78565b50505b505050565b600082821c905092915050565b6000611cff60001984600802611ce1565b1980831691505092915050565b6000611d188383611cee565b9150826002028217905092915050565b611d3182611587565b67ffffffffffffffff811115611d4a57611d49611689565b5b611d548254611acf565b611d5f828285611c9b565b600060209050601f831160018114611d925760008415611d80578287015190505b611d8a8582611d0c565b865550611df2565b601f198416611da086611b7c565b60005b82811015611dc857848901518255600182019150602085019450602081019050611da3565b86831015611de55784890151611de1601f891682611cee565b8355505b6001600288020188555050505b505050505050565b6000608082019050611e0f60008301876113fc565b611e1c60208301866113fc565b611e2960408301856113a5565b611e3660608301846113a5565b95945050505050565b600081905092915050565b50565b6000611e5a600083611e3f565b9150611e6582611e4a565b600082019050919050565b6000611e7b82611e4d565b9150819050919050565b600060a082019050611e9a60008301886113fc565b611ea760208301876113fc565b8181036040830152611eb9818661146b565b90508181036060830152611ecd8185611529565b9050611edc60808301846113a5565b969550505050505056fea2646970667358221220f516d181a744d7749909d4f2681a92823244b51ec35ab9b4f36bdfd5ed2546a664736f6c63430008110033",
  "devdoc": {
    "kind": "dev",
    "methods": {},
    "version": 1
  },
  "userdoc": {
    "events": {
      "PaymentExpenseCreated(address,address,address[],uint256[],uint256)": {
        "notice": "payer to splitBy splitAmount expenseIndex"
      }
    },
    "kind": "user",
    "methods": {},
    "version": 1
  },
  "storageLayout": {
    "storage": [
      {
        "astId": 34,
        "contract": "contracts/DeSplit.sol:DeSplit",
        "label": "balances",
        "offset": 0,
        "slot": "0",
        "type": "t_mapping(t_address,t_uint256)"
      },
      {
        "astId": 38,
        "contract": "contracts/DeSplit.sol:DeSplit",
        "label": "expenses",
        "offset": 0,
        "slot": "1",
        "type": "t_array(t_struct(Expense)30_storage)dyn_storage"
      }
    ],
    "types": {
      "t_address": {
        "encoding": "inplace",
        "label": "address",
        "numberOfBytes": "20"
      },
      "t_array(t_address)dyn_storage": {
        "base": "t_address",
        "encoding": "dynamic_array",
        "label": "address[]",
        "numberOfBytes": "32"
      },
      "t_array(t_struct(Expense)30_storage)dyn_storage": {
        "base": "t_struct(Expense)30_storage",
        "encoding": "dynamic_array",
        "label": "struct DeSplit.Expense[]",
        "numberOfBytes": "32"
      },
      "t_array(t_uint256)dyn_storage": {
        "base": "t_uint256",
        "encoding": "dynamic_array",
        "label": "uint256[]",
        "numberOfBytes": "32"
      },
      "t_mapping(t_address,t_uint256)": {
        "encoding": "mapping",
        "key": "t_address",
        "label": "mapping(address => uint256)",
        "numberOfBytes": "32",
        "value": "t_uint256"
      },
      "t_string_storage": {
        "encoding": "bytes",
        "label": "string",
        "numberOfBytes": "32"
      },
      "t_struct(Expense)30_storage": {
        "encoding": "inplace",
        "label": "struct DeSplit.Expense",
        "members": [
          {
            "astId": 19,
            "contract": "contracts/DeSplit.sol:DeSplit",
            "label": "description",
            "offset": 0,
            "slot": "0",
            "type": "t_string_storage"
          },
          {
            "astId": 21,
            "contract": "contracts/DeSplit.sol:DeSplit",
            "label": "payer",
            "offset": 0,
            "slot": "1",
            "type": "t_address"
          },
          {
            "astId": 23,
            "contract": "contracts/DeSplit.sol:DeSplit",
            "label": "to",
            "offset": 0,
            "slot": "2",
            "type": "t_address"
          },
          {
            "astId": 26,
            "contract": "contracts/DeSplit.sol:DeSplit",
            "label": "splitBy",
            "offset": 0,
            "slot": "3",
            "type": "t_array(t_address)dyn_storage"
          },
          {
            "astId": 29,
            "contract": "contracts/DeSplit.sol:DeSplit",
            "label": "splitAmount",
            "offset": 0,
            "slot": "4",
            "type": "t_array(t_uint256)dyn_storage"
          }
        ],
        "numberOfBytes": "160"
      },
      "t_uint256": {
        "encoding": "inplace",
        "label": "uint256",
        "numberOfBytes": "32"
      }
    }
  }
}